:020000040800F2
:10000000880C0020ED010008DF2300080D1E000809
:10001000DD230008CF040008CB2C000800000000FE
:10002000000000000000000000000000D9240008CB
:10003000E904000800000000B1240008D7290008E6
:10004000070200080702000807020008070200086C
:10005000070200080702000807020008070200085C
:10006000070200080702000807020008070200084C
:10007000070200080702000807020008070200083C
:10008000070200080702000807020008070200082C
:10009000D104000807020008070200080702000850
:1000A00007020008492A00080702000807020008A2
:1000B00007020008552A0008070200080702000886
:1000C00007020008070200080702000807020008EC
:1000D00007020008070200080702000807020008DC
:1000E00007020008070200080702000800000000DD
:1000F0000000000000000000000000000000000000
:1001000000000000000000000702000807020008CD
:10011000070200080702000807020008070200089B
:10012000070200080702000807020008070200088B
:10013000070200080000000000000000070200089D
:10014000DD04000807020008070200080702000893
:1001500000F002F800F03AF80AA090E8000C82449F
:100160008344AAF10107DA4501D100F02FF8AFF27C
:10017000090EBAE80F0013F0010F18BFFB1A43F085
:1001800001031847483F0000683F0000103A24BFB1
:1001900078C878C1FAD8520724BF30C830C144BFEC
:1001A00004680C607047000000230024002500262E
:1001B000103A28BF78C1FBD8520728BF30C148BFCA
:1001C0000B6070471FB51FBD10B510BD00F046F99C
:1001D0001146FFF7F7FF02F0EDFD00F064F903B4FC
:1001E000FFF7F2FF03BC00F06BF9000009488047FD
:1001F00009480047FEE7FEE7FEE7FEE7FEE7FEE709
:10020000FEE7FEE7FEE7FEE704480549054A064B20
:1002100070470000452A00085101000888060020A8
:10022000880C0020880800208808002053EA020C6F
:1002300000F069802DE9F04B4FF00006002B1FBF46
:10024000B3FA83F503FA05F424FA05F65E4012BF0B
:100250001643B2FA82F502FA05F4C5F120051EBF75
:1002600022FA05FC44EA0C04203556EA044C4FEA15
:10027000144418BF641C4FF000084FF0000990426E
:1002800071EB030C39D3002919BFB1FA81F701FAD8
:1002900007F6B0FA80F700FA07F6C7F120071EBF8D
:1002A00020FA07FC46EA0C062037B6FBF4FCA7EB65
:1002B0000507103F07F01F0BCBF120060CFA0BFBD4
:1002C0002CFA06F644BFB3460026202FA4BF5E4694
:1002D0004FF0000B5BEA060C08BF4FF0010B19EB67
:1002E0000B09ABFB027C48EB0608C01B06FB02CCEB
:1002F0000BFB03CC71EB0C01C1E70B4602464146F8
:100300004846BDE8F08B13B54FF000004FF00001F8
:10031000AFF30080BDE81C407047032A40F23080F4
:1003200010F0030C00F0158011F8013BBCF1020F36
:10033000624498BF11F801CB00F8013B38BF11F8B7
:10034000013BA2F1040298BF00F801CB38BF00F8CE
:10035000013B11F0030300F02580083AC0F008804B
:1003600051F8043B083A51F804CBA0E80810F5E72F
:10037000121D5CBF51F8043B40F8043BAFF3008012
:10038000D20724BF11F8013B11F801CB48BF11F887
:10039000012B24BF00F8013B00F801CB48BF00F857
:1003A000012B704710B5203AC0F00B80B1E818500F
:1003B000203AA0E81850B1E81850A0E81850BFF44F
:1003C000F5AF5FEA027C24BFB1E81850A0E81850EE
:1003D00044BF18C918C0BDE810405FEA827C24BF42
:1003E00051F8043B40F8043B08BF7047D20728BFD0
:1003F00031F8023B48BF11F8012B28BF20F8023B1F
:1004000048BF00F8012B70474FF0000200B51346BB
:1004100094469646203922BFA0E80C50A0E80C5024
:10042000B1F12001BFF4F7AF090728BFA0E80C50D5
:1004300048BF0CC05DF804EB890028BF40F8042BCE
:1004400008BF704748BF20F8022B11F0804F18BF3B
:1004500000F8012B7047704770477047754600F0F1
:100460002BF8AE4605006946534620F00700854646
:1004700018B020B5FFF7C8FEBDE820404FF00006D9
:100480004FF000074FF000084FF0000B21F007017C
:10049000AC46ACE8C009ACE8C009ACE8C009ACE8BF
:1004A000C0098D46704710B50446AFF30080204662
:1004B000BDE81040FFF793BE0048704724060020B7
:1004C00001491820ABBEFEE7260002007047FEE798
:1004D000014800F0B7B9000048000020014800F0D2
:1004E000B1B9000070000020704772B6FEE790F8C6
:1004F0002020012A07D0022A05D0416A41F4802138
:10050000416201207047006842690A43426100204D
:100510007047F0B590F820500468A468012D07D00A
:10052000022D05D0416A41F4802141620120F0BDD5
:1005300004F0806504F00066354301D1E50053D531
:10054000C4F301640125A5401D608B684FF4C0759C
:100550009BB1CE6805EB041733434E6843EAC603EC
:100560000668F3514FF4C273076803EB04130E6976
:10057000FE50097D012909D00DE00E88CB6805EBFE
:10058000041743EA46530668F351EBE70168CE5877
:1005900046F48076CE501179D379567941EA0361D9
:1005A00093791B0443EA062319434FF4C676036884
:1005B00006EB041699511178D37841EA03619378D8
:1005C00052781B0443EA022211434FF4C4730268B9
:1005D00003EB0413D150006805EB0411425842F0BC
:1005E000010242500020F0BD416A41F40011416215
:1005F0000120F0BD10B590F82020012A07D0022A72
:1006000005D0416A41F480214162012010BD3C487F
:1006100000F50070026842F001020260026822F4F4
:100620007C52026002684B6A42EA032202600A7D41
:1006300002F01F0301229A40C3699343C361A0F5EE
:100640000070CB69B3B9D0F80C329343C0F80C32C8
:100650008C894B6864F31F434C6900EBC404C4F8F5
:1006600040320C890B6864F31F434C6900EBC404EF
:10067000C4F84432CB69012B16D1D0F80C321343A5
:10068000C0F80C320C884B6864F31F434C6900EBD4
:10069000C404C4F840320C89CB6864F31F434C692E
:1006A00000EBC404C4F844328B697BB1D0F8043247
:1006B0001343C0F804320B6973B1D0F814321343FA
:1006C000C0F81432096A01290CD010E0D0F80432C5
:1006D0009343C0F80432EEE7D0F814329343C0F8E5
:1006E0001432EFE7D0F81C121143C0F81C12D0F8F6
:1006F000001221F00101C0F80012002010BD00001E
:1007000000640040704770B590F82040012C07D07D
:10071000022C05D0416A41F480214162012070BD64
:1007200021B104682469A4072AD003E00468E468BE
:10073000A4071FD04FF4D874056804EB01142D5999
:1007400005F0040595600DB305682D59ED08556059
:1007500005682C5904F00204D4604FF4DA7405687B
:1007600004EB01142E5906F00F06082E13D30825AA
:10077000156114E0416A41F400114162012070BD2D
:10078000416A41F400114162012070BD05682D5994
:100790006D0D1560DCE72D5905F00F051561056835
:1007A0002D59C5F30725956105682C59240C546112
:1007B0004FF4DC72046802EB0112A4581C70046848
:1007C000A458240A5C700468A458240C9C70046823
:1007D000A258120EDA704FF4DE72046802EB0112B6
:1007E000A4581C710468A458240A5C710468A458B5
:1007F000240C9C710468A258120EDA7131B10068A1
:10080000016941F020010161002070BD0068C168EC
:1008100041F02001C160F7E70246002092F8201065
:10082000012901D002290CD111688A68520100D532
:1008300001208A68120100D5401C8968C90000D5D2
:10084000401C70472DE9F05F054600242868466982
:10085000D0F804908768D0F80CA0D0F810B0D0F889
:100860001880F10748D0F90714D001218160B8073A
:1008700003D5284600F08AFA0CE0780702D54FF439
:10088000006407E0380702D54FF4805402E02846A0
:1008900000F07BFAF80516D529684FF4807088605F
:1008A000B80503D5284600F073FA0CE0780502D5A8
:1008B00044F4005407E0380502D544F4804402E0D3
:1008C000284600F064FAF80316D529684FF4803002
:1008D0008860B80303D5284600F05CFA0CE0780382
:1008E00002D544F4004407E0380302D544F48034D0
:1008F00002E0284600F04DFA300707D55FEACA60EB
:1009000004D544F4007429681020C86070074FF0C3
:10091000080707D55FEA0A7004D52868C76028462B
:1009200000F0C4F9B00706D52868C068800702D077
:10093000284600F0BDF9700607D55FEACB6004D504
:1009400044F48064296810200861B00607D55FEA86
:100950000B7004D528680761284600F0E7F9F00617
:1009600006D528680069800702D0284600F0DFF924
:10097000B00308D55FEAC96005D529681020486032
:10098000284600F0D5F9F00307D55FEA097004D5D1
:1009900028684760284600F0FEF9300446D55FEA33
:1009A000497040D5F00504D55FEAC87001D044F025
:1009B0000104B00504D55FEA887001D544F0020453
:1009C000700504D55FEA487001D544F00404300591
:1009D00029D518F0700F26D008F07000402815D0E7
:1009E00006DC102809D020280AD0302816D10AE0C9
:1009F00050280ED0602811D10EE044F008040DE01C
:100A000044F010040AE044F0200407E044F04004FD
:100A100004E044F0800401E044F4807428688169B3
:100A200021F070018161296804204860002C05D004
:100A3000686A204368622846FFF764FEBDE8F09FBD
:100A400070B50446002C03D094F8200010B104E0E7
:100A5000012070BD204600F09DF82068016841F03B
:100A60000101016000F0AAFA054605260CE000F03D
:100A7000A5FA401B0A2807D9606A40F4003060627A
:100A800084F82060012070BD20684068C007EED067
:100A90002068016821F00201016000F08FFA05462C
:100AA0000CE000F08BFA401B0A2807D9606A40F47A
:100AB0000030606284F82060012070BD20684068CA
:100AC0008007EED4207E01283FD02068016821F005
:100AD00080010160607E01283DD02068016821F01E
:100AE00040010160A07E01283BD02068016821F010
:100AF00020010160E07E012839D02068016841F0C2
:100B000010010160207F012837D02068016821F0A2
:100B100008010160607F012835D02068016821F05C
:100B200004010160D4E902010843D4E9041211432D
:100B300008436168491E08432168C861002060625B
:100B4000012084F82000002070BD2068016841F079
:100B500080010160BEE72068016841F0400101604A
:100B6000C0E72068016841F020010160C2E7206809
:100B7000016821F010010160C4E72068016841F0BC
:100B800008010160C6E72068016841F004010160C6
:100B9000C8E70000F0B585B00021019102910391F2
:100BA000049102683C483B4F3C4C016802250326F7
:100BB000491C3B4BBA4235D10160012907D1D869A4
:100BC00040F00070D861D86900F00070009098691A
:100BD00040F008009861986900F0080000904FF418
:100BE0008070019001A9204600F0E8F84FF40071F0
:100BF00001910295049601A9204600F0DFF82949E9
:100C0000486820F4C04040F0E06040F48040486014
:100C100000221146142000F03FFA142000F02EFAB2
:100C200005B0F0BD204FBA42FAD1DA6942F08062D5
:100C3000DA61DA6902F0806200920160012907D16D
:100C4000D86940F00070D861D86900F00070009059
:100C5000986940F008009861986900F008000090D9
:100C60004FF48050019001A9204600F0A7F84FF4FE
:100C7000005101910295049601A9204600F09EF8CA
:100C800000221146402000F007FA402000F0F6F95B
:100C9000C6E700000064004000000020000C014096
:100CA0000010024000000140006800407047000052
:100CB00010B58AB00446184884421CD101AB03AA7F
:100CC0000021FFF720FD039801AA81B2134801F02B
:100CD0003FF9134801F0D2F9124801F0CFF9104959
:100CE0000398A839D1F83C11884204D10C4801A9D5
:100CF000943002F01FF80C4884420BD101AB03AAD8
:100D00000021FFF700FD0598042803D101A90498EC
:100D100002F0CEFB0AB010BD480000206C0300209A
:100D2000D00100202403002070000020704770478D
:100D3000704770B5044694F82000012805D0606A19
:100D400040F400206062012070BD022084F8200081
:100D50002068016821F00101016000F02FF90546CB
:100D60000DE000F02BF9401B0A2808D9606A40F416
:100D700000306062052084F82000012070BD2068EA
:100D80004068C007EDD1606270BD70477047704722
:100D9000704770477047704770B5044600F00EF911
:100DA0000546601C02D004480078044400F006F9AF
:100DB000401BA042FAD370BD040000202DE9F84F7B
:100DC00000240023DFF8C4914FF00F08A9F1040BB1
:100DD00009F1040AABF1040ED1E00127A7403A4023
:100DE000BA4275D1DFF8A8C14D68A5EB0C06654580
:100DF0002BD00DDC032D34D005DC35B3012D19D0FB
:100E0000022D2FD11BE0112D16D0122D2AD119E061
:100E1000B6F5881F19D006DCB6F5803F15D0B6F5BB
:100E2000801F1FD111E0B6F5001F0ED0B6F5041FCC
:100E300018D10AE0CB6815E0CB681B1D12E0CB6827
:100E400008330FE0CB680C330CE08B6823B1012B27
:100E500004D00823476105E0042303E00823076169
:100E600000E00023FF2A01D8054601E000F1040557
:100E700002D84FEA840603E0A4F108064FEA86068A
:100E80002F6808FA06FC27EA0C0703FA06F647EA79
:100E900006072F604D68ED0070D53E4DAE6946F0F7
:100EA0000106AE61AD6905F0010500953A4D24F0EB
:100EB00003067719BE68A5072D0F08FA05FC26EA78
:100EC0000C06DFF8D8C0604503D14FF0000C17E0E6
:100ED00054E0DFF8CCC0604502D14FF0010C0FE0C8
:100EE000DFF8C0C0604502D14FF0020C08E0DFF827
:100EF000B8C0604502D14FF0030C01E04FF0040C84
:100F00000CFA05FC4CEA060CC7F808C04D68ED0267
:100F100005D5D9F800501543C9F8005004E0D9F8B8
:100F200000509543C9F800504D68AD0205D5DAF878
:100F300000501543CAF8005004E0DAF80050954319
:100F4000CAF800504D68AD0305D5DBF800501543D5
:100F5000CBF8005004E0DBF800509543CBF800508C
:100F60004D68ED0305D5DEF800501543CEF800506E
:100F700004E0DEF800509543CEF80050641C0A6887
:100F800032FA04F57FF429AFBDE8F88F0804014078
:100F90000000111000100240000001400008014054
:100FA000000C01400010014000140140002A01D053
:100FB00001617047090401617047000001488068C1
:100FC0007047000004000020024881680278114444
:100FD000816070470400002010B50748016841F0A7
:100FE00010010160032000F077F80F2000F006F8F0
:100FF00000F026F8002010BD0020024070B5044625
:101000000D4D4FF47A712878B1FBF0F00B49096867
:10101000B1FBF0F000F08CFB08B1012070BD102C8A
:1010200007D200222146501E00F036F86C600020E6
:1010300070BD012070BD00000400002010000020E1
:1010400008B50C48816941F001018161816901F0B5
:1010500001010091C16941F08051C161C06900F096
:10106000805000900449486820F0E06040F0007033
:10107000486008BD0010024000000140002809DB64
:1010800000F01F02012191404009800000F1E020A2
:10109000C0F8001170470000F0B40D460D4B1B68FE
:1010A000C3F30223C3F10704042C00D90424191D3F
:1010B000072901D2002300E0DB1E012606FA04F115
:1010C000491E294099409E40761E16403143F0BC8F
:1010D00001F0FCBD0CED00E000F00701054A1068CE
:1010E0004FF6FF03184040EA01200349084310600F
:1010F000704700000CED00E00000FA052DE9F04714
:1011000004460D46002C17D0DFF83081D8F80000D7
:1011100000F00700A84211D2D8F8000020F0070024
:101120002843C8F80000D8F8000000F00700A842E3
:1011300004D00120BDE8F0870120FBE72068404E85
:10114000810712D5400703D5706840F4E0607060F5
:101150002078000703D5706840F4605070607068B4
:10116000A16820F0F000084370602078C0072CD000
:101170006068012806D0022809D0316889070BD49D
:101180000120D7E73168890306D40120D2E731680E
:10119000890101D40120CDE7716821F003010143E9
:1011A0007160FFF70BFF074641F2883906E0FFF751
:1011B00005FFC01B484501D90320BBE77068616883
:1011C00000F00C00B0EB810FF1D1D8F8000000F076
:1011D0000700A8420ED9D8F8000020F007002843E5
:1011E000C8F80000D8F8000000F00700A84201D0BD
:1011F00001209FE72078400705D57068E16820F45A
:10120000E060084370602078000706D570682169A7
:1012100020F4605040EAC100706000F019F8716875
:10122000084AC1F30311515CC840074908600748E8
:101230000068FFF7E3FE00207CE70000002002408A
:1012400000100240BC4000081000002008000020F0
:101250002DE9F0411D4B59681D4801F00C02042A8C
:101260002ED0082A2CD11B48C1F38342845CC803CA
:1012700028D5D86A174900F00F000E31085CD96AEA
:10128000C90316D5D96AC1F30312521CD96AC1F336
:101290000321891CA2FB0023A1FB04170C4D00268F
:1012A000A1FB050C07FB05C501FB0651FEF7BEFFC0
:1012B00003E007496143B1FBF0F00D2C00D1400879
:1012C000BDE8F08104486043FAE7000000100240E6
:1012D00000127A009E40000800093D002DE9F84FF9
:1012E0000446002C0ED02078F84DC0075ED0686808
:1012F000C0F3810001280BD06868C0F38100022888
:1013000003D00CE00120BDE8F88F6868C00306D563
:10131000286880034AD5A068A8BB0120F3E7A0682D
:10132000B0F5803F11D0A8B1B0F5A02F1BD0286830
:1013300020F480302860286820F480202860A0688D
:1013400030B3FFF73BFE06461EE0286840F48030CD
:101350002860F4E7286820F480302860286820F4AA
:1013600080202860EBE7286840F480202860286807
:1013700040F480302860E2E7FFF720FE801B6428FD
:1013800002D90320BFE711E028688003F4D50DE0FF
:10139000FFF714FE064606E0FFF710FE801B6428E8
:1013A00001D90320AFE728688003F5D42078C84E20
:1013B00080074FF0010A4FF0000746D5686810F02B
:1013C0000C0F07D06868C0F38100022812D168684A
:1013D000C0030FD42868800704D56069012801D0B4
:1013E000012090E72868A16920F0F80040EAC100D8
:1013F00028602AE06069C0B1C6F800A0FFF7DEFDF2
:10140000804607E0FFF7DAFDA0EB0800022801D9CB
:10141000032078E728688007F4D52868A16920F0C0
:10142000F80040EAC10028600FE03760FFF7C6FD12
:10143000804607E0FFF7C2FDA0EB0800022801D9B3
:10144000032060E728688007F4D42078000727D5B8
:10145000A048E169A1B1C0F800A0FFF7AFFD804648
:1014600007E0FFF7ABFDA0EB0800022801D903203D
:1014700049E7686A8007F4D5012001F01BF80FE006
:101480000760FFF79BFD804607E0FFF797FDA0EBA5
:101490000800022801D9032035E7686A8007F4D4E0
:1014A000207840077AD54FF00008E869C00009D4D9
:1014B000E86940F08050E861E86900F080500090F1
:1014C0004FF00108DFF810B2DBF80000C00515D4BA
:1014D000DBF8000040F48070CBF80000FFF76EFDF1
:1014E000814607E0FFF76AFDA0EB0900642801D9F7
:1014F000032008E7DBF80000C005F3D520690128C8
:1015000012D0B0B105281DD0286A20F00100286251
:10151000286A20F004002862206941F2883B30B339
:10152000FFF74CFD81461EE0286A40F0010028626A
:10153000F2E7286A20F001002862286A20F00400FF
:101540002862E9E7286A40F004002862286A40F02F
:1015500001002862E0E7FFF731FDA0EB09005845E4
:1015600001D90320CFE6286A8007F4D50FE0FFF702
:1015700025FD814608E0FFF721FDA0EB0900584555
:1015800002D90320BFE609E0286A8007F3D4B8F146
:10159000010F03D1E86920F08050E861E06A78B378
:1015A0006968C90309D56968C1F38101022904D1B9
:1015B000E96AC90301D50120A5E6022808D0E86A36
:1015C00020F48030E862B766FFF7F8FC804641E01F
:1015D0002868C00007D5E86A616B00F0F000884217
:1015E00001D001208FE6B766FFF7E8FC804608E0EF
:1015F000FFF7E4FCA0EB0800642802D9032082E690
:101600002BE028680001F3D4E86A616B20F0F00059
:101610000843E862E86A216B20F470600843E862DE
:10162000C6F868A0FFF7CAFC804607E0FFF7C6FCD3
:10163000A0EB0800642801D9032064E628680001B3
:10164000F4D50AE0FFF7BAFCA0EB0800642801D942
:10165000032058E628680001F4D4206AF0B36968D2
:10166000C1F38101022950D0022804D03766FFF768
:10167000A5FC044645E03766FFF7A0FC074606E0F8
:10168000FFF79CFCC01B022801D903203BE6286819
:101690008001F5D4606AB0F5803F09D1E86A6168DD
:1016A0000843E862E86AE16820F00F000843E86256
:1016B000D4E909010843696821F47411084368609A
:1016C000C6F860A0FFF77AFC04460FE00010024065
:1016D00000004242800442420070004026E0FFF7D2
:1016E0006DFC001B022801D903200CE6286880014C
:1016F000F5D51BE0FFF762FC001B022801D903208F
:1017000001E628688001F5D410E001280CD0686853
:10171000626A00F48031914204D1A16A00F4701031
:10172000884203D00120EEE50120ECE50020EAE547
:1017300010B5401EB0F1807F01D3012010BD4FF0E5
:10174000E02460610F21601701F0C0FA0020A06161
:1017500007202061002010BD7047704710B590F839
:101760003C20012A22D0012280F83C20CA680023B4
:101770008C6822F4407222434C6822F48062224337
:101780000C6822F4006222430C6922F48052224346
:101790004C6922F400522243C96922F480420A4370
:1017A00001684A6480F83C30002010BD022010BD62
:1017B00070B590F83C20012A28D0012680F83C60C2
:1017C000022280F83D2002685368946823F0700577
:1017D0000B682B4353600E4B02689A420BD0B2F158
:1017E000804F08D00B4B9A4205D00B4B9A4202D047
:1017F0000A4B9A4204D124F080034968194391604E
:101800003C30467000210170002070BD022070BD88
:10181000002C01400004004000080040000C004083
:1018200010B50446002C03D094F83D0010B107E039
:10183000012010BD002084F83C00204600F016F87E
:10184000022084F83D00211D206801F009F90120E3
:101850003D3460726070A070E07020716071A071A2
:10186000E07120722070002010BD000008B50068F3
:10187000154A1649904211D1886940F40060886188
:10188000886900F400600090002211461920FFF7DB
:1018900003FCBDE808401920FFF7F0BB0C4A90425A
:1018A00011D1C86940F00200C861C86900F00200A7
:1018B0000090002211461D20FFF7EEFBBDE8084016
:1018C0001D20FFF7DBBB08BD002C014000100240CB
:1018D0000004004090F83D10012901D0012070471C
:1018E000022180F83D100168CA6842F00102CA6016
:1018F00000680F4988420BD0B0F1804F08D00D49E5
:10190000884205D00C49884202D00C49884209D14E
:10191000816801F00701062908D0016841F0010142
:10192000016003E0016841F001010160002070479F
:10193000002C01400004004000080040000C004062
:1019400070B50446002594F83C00012817D0012604
:1019500084F83C60022084F83D002068826822F010
:10196000770222F47F4282600868502838D00DDC6C
:10197000202853D005DC90B3102811D14EE002206E
:1019800070BD30284AD040280AD13DE0602831D0CF
:1019900070280CD0B0F5805F03D0B0F5005F12D096
:1019A00001253C34667000202070284670BDCB684D
:1019B000D1E90121206801F09CF82068816841F09C
:1019C00077018160EDE7CB68D1E90121206801F062
:1019D00090F82068816841F480418160E1E71DE072
:1019E000CA684968206801F04DF95021206801F06B
:1019F0008AF8D6E7CA684968206801F054F960217E
:101A0000206801F080F8CCE7CA684968206801F0D6
:101A100039F94021206801F076F8C2E722680146D2
:101A2000104601F070F8BCE7704770B504462068B6
:101A300001694FF00005C943890716D4C168C9433D
:101A4000890712D4E91E016101202077206880698E
:101A5000800703D02046FFF7E7FF05E0204600F0AF
:101A6000C1F8204600F051F9257720680169C94383
:101A7000490718D4C168C943490714D46FF0040159
:101A80000161022020772068806910F4407F03D034
:101A90002046FFF7C9FF05E0204600F0A3F82046E6
:101AA00000F033F9257720680169C943090717D485
:101AB000C168C943090713D46FF00801016104200C
:101AC00020772068C069800703D02046FFF7ACFF6D
:101AD00005E0204600F086F8204600F016F925774C
:101AE00020680169C943C90618D4C168C943C90639
:101AF00014D46FF010010161082020772068C069BC
:101B000010F4407F03D02046FFF78EFF05E020460B
:101B100000F068F8204600F0F8F8257720680169A1
:101B2000C943C90708D1C168C943C90704D1891E7F
:101B30000161204600F046F920680169C9430906A1
:101B400009D4C168C943090605D46FF08001016159
:101B50002046FFF701FE20680169C943490609D400
:101B6000C168C943490605D46FF0400101612046B0
:101B700000F04AF920680169C94389060BD4C1689D
:101B8000C943890607D46FF0200101612046BDE8F2
:101B90007040FFF7E2BD70BD00B585B00021019136
:101BA00002910391049100680B49884212D10B48BD
:101BB000816941F004018161806900F004000090B6
:101BC0004FF48060019002200290049001A9044823
:101BD000FFF7F4F805B000BD002C014000100240F2
:101BE00000080140704770B504460D46002694F881
:101BF0003C0001280FD0012084F83C006AB1042A7F
:101C00001FD0082A32D00C2A44D00126002084F8A4
:101C10003C00304670BD022070BD2946206800F0AF
:101C20007BFF2068816941F008018161206881693A
:101C300021F004018161206881692A691143816171
:101C4000E4E72946206800F097FF2068816941F4A5
:101C5000006181612068816921F48061816120686F
:101C600081692A6941EA02218161CFE7294620681A
:101C700000F0B4FF2068C16941F00801C16120682B
:101C8000C16921F00401C1612068C1692A69114359
:101C9000C161BBE72946206800F0D0FF2068C16918
:101CA00041F40061C1612068C16921F48061C161B2
:101CB0002068C1692A6941EA0221C161A6E710B51D
:101CC0000446002C03D094F83D0010B107E0012039
:101CD00010BD002084F83C00204600F015F80220DA
:101CE00084F83D00211D206800F0BAFE01203D343B
:101CF00060726070A070E07020716071A071E0711E
:101D000020722070002010BD7047704710B5044647
:101D1000002909D004290AD008290BD094F84100E1
:101D200001280AD0012010BD94F83E00F8E794F88D
:101D30003F00F5E794F84000F2E7022051B3042990
:101D40002BD008292CD084F841000122206800F013
:101D5000C3FE18492068884203D1426C42F4004215
:101D60004264206888420BD0B0F1804F08D01249FD
:101D7000884205D01149884202D01149884212D1C7
:101D8000816801F00701062911D0016841F00101C5
:101D900001600CE084F83E00D7E784F83F00D4E708
:101DA00084F84000D1E7016841F0010101600020A2
:101DB00010BD0000002C014000040040000800405D
:101DC000000C004010B500680D49884216D100F0A3
:101DD00085FB00F0A1FB0B4A506800EB4001C1EB12
:101DE000C013116801EBC3039360491C1160B1F586
:101DF0007A7F03D100211160401C506010BD0000AB
:101E0000002C0140140000207047000040F68C2593
:101E10000E4C20791A2803D10A20294600F0C2FF6F
:101E200020791B2803D10920294600F0BBFF207927
:101E30001C2803D10820294600F0B4FF20791D2872
:101E4000E7D10720294600F0ADFFE2E72801002096
:101E5000074B064A1A60C0F88C1106480021416001
:101E6000082202618160C16001757047552E00082B
:101E700024000020FC0400207CB506460C461546D4
:101E8000002D03D00021012D31D000E001210022DE
:101E9000114327D06E3434F81A1C080A8DF800005C
:101EA0008DF80110608A000A8DF80200A07C8DF880
:101EB0000300E08F000A8DF8040094F83E008DF8CE
:101EC0000500B4F86A00000A8DF8060094F86A006C
:101ED0008DF80700D4F81E0133686E3C6A464FF453
:101EE000007198472DB10021022D2ED002E0012271
:101EF000CEE701210020014326D004F5907434F888
:101F00001C1C080A8DF800008DF80110208A000AB8
:101F10008DF80200207C8DF80300A08F000A8DF858
:101F2000040094F83C008DF80500B4F86800000A3D
:101F30008DF8060094F868008DF807003368E06EAD
:101F40006A4640F2FF1198477CBD0120D3E70000AC
:101F500010B5054CD0F88C31636000F007F808B17B
:101F6000012010BD002010BD2400002010B5C9B212
:101F7000002904D00023082902D9012401E001230B
:101F80000024234301D0012010BD5378147843EA84
:101F9000042301EB410404EBC10100EB81046380E5
:101FA000D078917840EA0120A0805079117940EAF8
:101FB0000120E08090792072608800F011F82061A3
:101FC000608800F01DF8E060E08800F033F801F070
:101FD0003FFEA061A088A082207AE061002010BDB1
:101FE00010B501F069FE044901F070FDBDE8104034
:101FF000024901F075BE000000F8FF450000B4433F
:1020000010B501F059FE084901F060FD01F0CAFC6D
:10201000064A074B01F0C8FB012201F0D4FFBDE8DE
:10202000104001F041BB000000F8FF451F85EB5157
:10203000B81E094010B5A0F5804001F025FE6FF0F4
:102040000D0101F0EEFFBDE81040014901F048BE6E
:102050000000A04110B501F0A5FC4FF03332034B56
:1020600001F0A2FBBDE8104001F01EBB3333D33FAB
:102070000B46828B017B806800F07EB810B5044669
:10208000204600F009F8B4F9240001F0FDFD2169B3
:1020900001F01CFD606310BD2DE9F0410446207B7A
:1020A000A16800EB400202EBC000022202EB8002BA
:1020B0008D5E2584042202EB80028E5EA6840622B9
:1020C00002EB8000085EE08401F057FB4FF03332F2
:1020D000174B01F069FB01F021FB07462063B4F9BF
:1020E0002200281A10F5805F02DCE16A491CE162D7
:1020F000B0F5805F02DBE06A401EE062E06A05EB5B
:102100004030A062304601F0BFFD2669314601F043
:10211000DDFC6063384601F0B7FD314601F0E0FDBB
:10212000616801F0A9FE60646584BDE8F08100008B
:102130003333D33F0A7B02738A6882600B69036181
:102140004B6843600B68036009681046FFF780BE68
:1021500070B504461546A183A08BFFF76BFFA06105
:10216000FFF778FF216901F0BBFD60612946204639
:10217000BDE87040FFF77CBF30B40C4DD0F88C4107
:102180006C6001EB410404EBC10400EB8404228584
:10219000002B09D10522B1FBF2F1491CCAB201465C
:1021A000284630BCFFF768BE30BC704724000020D2
:1021B00010B50F480D490160042141600021816084
:1021C000C1604FF480220261D20042610176012297
:1021D00042768176C17601774177FEF731FC00289F
:1021E00003D0BDE81040FEF780B910BD0064004088
:1021F0004800002010B50F480D49016004214160DE
:1022000000218160C1604FF40032026152014261DD
:102210000176012242768276C17601774177FEF718
:102220000FFC002803D0BDE81040FEF75EB910BDDA
:10223000006800407000002010B586B000200290B9
:102240000390049005901648816941F02001816156
:10225000816901F020010191816941F008018161EA
:10226000816901F008010191816941F004018161F6
:10227000806900F0040001900A4C002203212046EE
:10228000FEF794FE032102910121039102210491A2
:10229000059102A92046FEF791FD06B010BD000091
:1022A00000100240000C014010B596B000241294BA
:1022B000139414941594109411941C2109A8FEF7FA
:1022C000A3F8202101A8FEF79FF8294827490160BB
:1022D00047214160846040F2E731C160046144619C
:1022E00080218161FFF79CFA08B1FEF7FEF84FF4F8
:1022F0008050129012A91E48FFF722FB08B1FEF78A
:10230000F4F81B48FFF7DBFC08B1FEF7EEF8109479
:10231000119410A91648FFF74BFA08B1FEF7E5F83B
:10232000602009900A940B940C940D940E940F94D1
:10233000082209A90E48FFF756FC08B1FEF7D5F8A8
:10234000019402940394049405944FF40050069071
:10235000089401A90648FFF701FA08B1FEF7C5F88D
:102360000348FFF719FC16B010BD0000002C014017
:102370009800002010B586B00024029403940494C1
:102380000594009401941448124901604821416069
:1023900084604FF47A71C16004618461FFF740FA90
:1023A00008B1FEF7A2F84FF48050029002A90A4843
:1023B000FFF7C6FA08B1FEF798F800940194694651
:1023C0000548FFF7F5F9002801D0FEF78EF806B0B2
:1023D00010BD000000040040E0000020FEE7FEE722
:1023E00070B50446B4F92250002D16D0A06A081A20
:1023F000454394F826000541A162204600F01CF8F0
:102400002844B4F91410814201DA084608E0B4F90E
:102410001610814204DD084602E0204600F00CF868
:1024200000B270BD018881804188C180018C4184E7
:10243000002181608162704770B5B0F91440B0F935
:102440001650B0F904604E43B0F90630002B0BD0A3
:102450004B438268D118002909DA002A0CDD002BD1
:102460000ADD6FF0004107E0002181600FE0002AE3
:1024700002DA002B00DA0D49C2688A4201DA826072
:1024800005E002698A4201DD826000E08160827FAE
:102490008168007F114106418A19A24201DD22466E
:1024A00002E0AA4200DA2A4610B270BD01000080A4
:1024B0007047000008B507494FF4FA520968B1FBAC
:1024C000F2F14143009100BF0098411E0091FAD201
:1024D00008BD0000100000207047000010B508483B
:1024E000807900280AD0064800F07AF8044800F005
:1024F0005FFABDE81040024800F054B810BD00007B
:102500002801002010B5034800F074F8BDE8104021
:1025100000F0A6BF28010020014800F0EBBE00003B
:10252000280100200021064A52F83130834201D1AF
:1025300000207047491C0429F6DB03207047000087
:102540002C05002010B5C0210248FDF75DFF0020DA
:1025500010BD0000640500200021074A02EBC10302
:102560001B79834202D152F831007047491C04297B
:10257000F4DB0020704700002C0500200021084AF1
:1025800052F8313023B1491C0429F9DB012070478E
:1025900042F8310002EBC101007908710020704758
:1025A0002C05002010B504462046FFF7BBFF08B1FC
:1025B000032010BDD4F8BC0001F04AFB01B2002298
:1025C00004F1A800FFF7C4FDD4F8100201F040FBAD
:1025D00001B2002204F5FE70FFF7BAFD002010BD25
:1025E00010B50246104600F0B2F9104600F0BCF8F3
:1025F000002010BD2DE9F0418EB00446202128486E
:10260000FDF702FF204600F047F94FF082400D90A1
:10261000244F0B9701268DF8306000250A95DFF8CE
:102620008880CDF8248009A904F1A800FFF782FD75
:102630001E480890069702208DF81C000595CDF8DD
:10264000108004A904F5FE70FFF774FD258004F5E1
:102650009E70074600F04AFB8DF804608DF8055027
:102660008DF80850102000906946384600F078FB3D
:10267000B002C4F8F000042084F8F4008002C4F82A
:10268000F8001A2020716671A6712046FFF776FFC8
:1026900018B101200EB0BDE8F0810020FAE700007B
:1026A0002C0500206C030020480000200000604141
:1026B00010B50446E434A06FA06417490968216589
:1026C000626D891AE26F801AB0FBF1F054F8080CC1
:1026D00001F0BEFA6064E43C04F59E7000F04AFB31
:1026E0009434D4F8A000C4F8A400A06C01F0B0FAAF
:1026F0002060A06D01F0ACFAA060D4F8A00104F550
:10270000AA746060A06C01F0A3FA2060A06D01F0D3
:102710009FFAA060002010BD1C000020F830426B22
:102720000168B2FBF1F301FB1322C2600379F838B0
:10273000002B02D18A1AC0F8042100F5BA7050F8B3
:10274000702CC2EB4232B2FBF1F140F8701C50F831
:102750004C1C40F8741C816F0165416FC164C16FEE
:1027600041650020704700002DE9F04704462046EF
:10277000FFF7D8FE10B10320BDE8F087B4F964017B
:1027800094F905104843B4F96611411A04F5CA706A
:10279000FFF726FEC4F8DC0101F076FAC4F8100257
:1027A000207A41F6FF7638B1B4F90C00B4F9101074
:1027B000411AE07980B359E094F90550681E01F0A0
:1027C00063FA4FF0FF37394601F02BFCDFF8C48085
:1027D000414601F085FA8246B4F90C00B4F91010B4
:1027E000401A01F051FA8146514601F045FB01F0D3
:1027F0002FFA002801DB014601E0C0F10001A6EB41
:10280000010201DB014601E0C0F100018A4204DD62
:10281000002806DA404204E01CE0002800DA4042CA
:10282000301A40F6CC41884201DD6842607194F96B
:102830000500401E01F028FA394601F0F2FB41463E
:1028400001F04EFA0146484601F0D8F801F000FACE
:102850000146AEE7701A884203DAA1F5F851FF3954
:1028600004E088194242914200DA014604F1140062
:10287000FFF7B6FDE081B4F91210411A04F14000EF
:10288000FFF7AEFD44F8880F01F0FEF96063002009
:1028900072E7000000F07F4570B5044604F11400B3
:1028A00058210546FDF7B0FD582104F5B470FDF739
:1028B000ABFD0720203424F80C0C062020820121D7
:1028C000A182002060834FF4FA6222814FF6300229
:1028D00062814FF4C8722284A1870521618402219C
:1028E000E18741F27072A2864EF69002E2864FF4C2
:1028F000C862E262524222634822A4F87421A4F81A
:1029000090111422A4F87621A4F89211A4F894014D
:10291000A4F89A014FF47A50A4F888014CF2801080
:10292000A4F88A014FF47A70C4F880014042C4F8D8
:102930008401203C2846FFF775FD04F14000FFF7B5
:1029400071FD04F5CA70BDE87040FFF76BBD0188EA
:1029500081814188A0F8641100207047B0F804110B
:102960000182B0F800114182B0F8C011A0F86611E0
:1029700000207047002902D0012905D102E0002182
:10298000C17101E00121C17100207047002902D00E
:10299000012905D102E00021017201E0012101724B
:1029A0000020704701800020704741800020704760
:1029B00010B504462046FFF7B5FD08B1032010BD51
:1029C0002046FFF775FE2046FFF7A8FE2046FFF7DA
:1029D000C5FF002010BDFEF7F7BA000070B594B037
:1029E000382106A8FDF710FD142101A8FDF70CFD04
:1029F0000125069528040890002409940B95079456
:102A000002260E960F904FF4E0101090119406A835
:102A1000FEF764FC08B1FDF768FD0F2001900296F7
:102A200003944FF4806004900594022101A8FEF7FE
:102A300065FB08B1FDF759FD0148056714B070BD8D
:102A400000004242704700000148FEF7EEBF000060
:102A5000980000200148FEF7E8BF0000E0000020D9
:102A6000F0B50268184C194D194E1A4F4FF0804CB2
:102A7000A04207D0604505D0A84203D0B04201D0A3
:102A8000B84203D122F070034A681A43A04207D02B
:102A9000604505D0A84203D0B04201D0B84203D16E
:102AA00022F44073CA681A434B6922F080021A4329
:102AB00002608A68C2620A688262A04201D1096922
:102AC000016301214161F0BD002C01400004004080
:102AD00000080040000C004010B501F01F01012368
:102AE0008B40046A9C430462036A8A401343036276
:102AF00010BD10B5846824F47F4442EA03220A43DF
:102B00002243826010BD826822F070020A4342F0C4
:102B1000070181607047000030B5026A036A23F044
:102B2000010303624368846924F0700424F0030500
:102B30000C682C4322F002058A682A430D4DA842F6
:102B400006D122F00802CD6845EA020525F004020C
:102B500009D123F4807323F400734D6945EA03051A
:102B60008B6943EA050343608461496841630262FB
:102B700030BD0000002C014030B5036A026A22F02B
:102B8000100202624268846924F4E04424F4407430
:102B90000D6844EA052423F020038D6843EA0513F9
:102BA0000D4DA84206D123F08003CD6843EA0513FA
:102BB00023F0400309D122F4806222F400624D69BF
:102BC00042EA85028D6942EA850242608461496871
:102BD0008163036230BD0000002C014030B5026A01
:102BE000036A23F4807303624368C46924F07004A9
:102BF00024F003050C682C4322F400728D6842EA2D
:102C000005220D4DA84206D122F40062CD6842EAA9
:102C1000052222F4806209D123F4805323F4005367
:102C20004D6943EA05138D6943EA05134360C461A6
:102C30004968C163026230BD002C014030B5036AAF
:102C4000026A22F4805202624268C46924F4E044B9
:102C500024F440740D6844EA052423F400538D687D
:102C600043EA0533064DA84204D122F480424D695F
:102C700042EA85124260C46149680164036230BD62
:102C8000002C014010B5036A046A24F001040462B8
:102C9000846924F0F00444EA021423F00A020A438F
:102CA0008461026210BD10B5036A046A24F0100446
:102CB0000462846924F4704444EA023223F0A003DD
:102CC00043EA01118261016210BDFEE70907090EA6
:102CD000002804DB00F1E02080F80014704700F0C9
:102CE0000F0000F1E02080F8141D7047074A0649E4
:102CF00011600749C1600748002141600822026154
:102D00008160C16001757047692E000830000020A5
:102D100048000020140500201CB50246D1E9040338
:102D2000CDE900030888146883B2C8686A4619466A
:102D3000A0471CBDAFF300800A6882614968C16189
:102D4000817E012903D0C07E40B101207047016A15
:102D50004162D0F81B1001620020704700207047CC
:102D60000A7902714A7942710A7A0272096801602D
:102D70000020704782B00A4AC16851600421017482
:102D800001784174012181740099C0F813109DF8F5
:102D90000410C1750146104602B0FFF7BDBF000028
:102DA00030000020024A136898621068C1637047BF
:102DB00098000020FEF710F9FFF710FEFFF73CFA2D
:102DC000FFF7F6F9FFF716FAFFF7D4FAFFF76CFAF8
:102DD00000F022F80D48FDF7ACFF0D48FDF7A9FF04
:102DE00002210A48FDF783FB02210948FDF77FFB1A
:102DF0000848FEF76FFD08210648FEF787FFFFF73A
:102E000081FB0420FDF7C8FFFBE70000480000201D
:102E1000700000209800002000B58BB001210991BE
:102E20000691002007900891059001900290039070
:102E3000049001A90548FDF7DDFB0F20069001A9CC
:102E40000348FDF7D7FB0BB000BD00004800002091
:102E500070000020024B1960024B0149FDF759BB7D
:102E6000FC04002020000020024B1960024B0149A5
:102E7000FDF74FBB140500202C00002070B5044660
:102E80001546074841602046FDF7C6FC0028FAD0E9
:102E90002A462046BDE87040024B0149FDF739BB88
:102EA0004C0500203C0000200FB42DE9F04188B013
:102EB000074688469DF842109DF84340DDF84500DE
:102EC0000690DDF8490007900025049505958DF8DA
:102ED0001010BDF81800ADF81400BDF81A00ADF8D8
:102EE0001200404600F0A7FA0290059800902A468A
:102EF0001748049B029900F06AFA06460495059566
:102F00008DF81040BDF81C00ADF81400BDF81E008F
:102F1000ADF812002146404600F08DFA0290059867
:102F200000902A460A48049B029900F050FA46EAAB
:102F30000020ADF842001F208DF844000E2210A999
:102F40003846FDF7EAF908B0BDE8F0015DF814FB7A
:102F5000640500200FB410B51F218DF814100A4A23
:102F600008E001EB410404AB02EBC4040B44247AF7
:102F70005C71491C0829F4DB0E2204A9FDF7CDF988
:102F800010BC5DF814FB0000640500200FB470B5A0
:102F900005461F208DF81C00BDF81A00002813D02C
:102FA000002406A82044417919B14179144800F061
:102FB000F7F9641C082CF4DB0E2206A92846FDF75D
:102FC000ACF970BC5DF814FB08240D4EBDF81A1066
:102FD000C4F1080080F00202114206D000EB40006C
:102FE00006EBC0001821FDF70FFA641EE4B2002CB6
:102FF000ECD10E2206A92846FDF78FF9E1E7000083
:10300000640500200FB430B58DB005460C469DF820
:103010004A200A929DF84B100B91012A06D0022AF1
:1030200012D0032A1ED0042A39D12AE007911C228B
:1030300004F124016846FDF7B5F914340FCC00F013
:1030400040F8CDE908012AE007911C2204F1500163
:103050006846FDF7A7F940340FCC00F032F8CDE90F
:1030600008011CE007911C2204F5BC716846FDF7BD
:1030700099F904F5B4740FCC00F023F8CDE90801F8
:103080000DE007911C2204F5D2716846FDF78AF91C
:1030900004F5CA740FCC00F014F8CDE908010898C3
:1030A000CDF84D000998CDF851001F208DF84C0047
:1030B0000E2212A92846FDF730F90DB030BC5DF89C
:1030C00014FB0FB41FB511980022029203920999C4
:1030D00001910A99009101280ED0022815D00328E9
:1030E0001CD004282BD0002002900390DDE90201BF
:1030F00004B010BC5DF814FBBDF82C00ADF808005E
:10310000BDF82E00ADF80A00F0E7BDF81C00ADF8E0
:103110000800BDF83400ADF80A00E7E7BDF81E006E
:10312000ADF80800BDF83600ADF80A00BDF804009F
:10313000ADF80C00BDF80000ADF80E00D6E7BDF804
:103140003A00ADF80800BDF83E00ADF80A00CDE742
:103150000FB470B506460D461F208DF81C000DF10A
:103160001A00C4B221782846FFF710FC617828467F
:10317000FFF700FC0020A8710E2206A93046FDF7DB
:10318000CCF870BC5DF814FB0FB470B506460D4664
:103190001F208DF81C000DF11A00C4B221782846BA
:1031A000FFF7F4FB61782846FFF7E4FB0120A871E4
:1031B0000E2206A93046FDF7B0F870BC5DF814FB8E
:1031C0000FB41FB5044608469DF8223002939DF8BF
:1031D00023200392DDF825100091DDF829100191DC
:1031E000012B06D0022B09D0032B0CD0042B15D1B8
:1031F0000FE06946143000F01CF80FE069464030DB
:1032000000F017F80AE0694600F5B47000F011F814
:1032100004E0694600F5CA7000F00BF81F208DF835
:1032200024000E2208A92046FDF777F81FBC5DF8A0
:1032300014FB1CB5002400940194012A09D0022A31
:103240000CD0032A0FD0042A16D000200090019041
:103250001CBD0A8882824988C1821CBD0A8882807E
:10326000498881831CBD0A88C2804A88C2838A88B3
:103270008281C98801821CBD0A8842844988C18430
:103280001CBD0FB47CB505460C461F218DF82410DB
:10329000DDF825100091BDF800102046FFF782FBF5
:1032A000BDF802102046FFF780FB0E2208A9284631
:1032B000FDF733F87CBC5DF814FB002101EB410203
:1032C00000EBC202127C22B1491C0829F6DB08205F
:1032D0007047C8B27047002202EB420300EBC30301
:1032E0001B7C8B4201D101207047521C082AF3DB62
:1032F000082070472DE9FF4100798DF801001E205C
:103300008DF804000024244E244D04EB440106EB08
:10331000C100037C23B14288012A05D0521E42809D
:10332000287802281DD029E0077917B936F831200E
:103330009AB12A788068EC460CEB4218007888F83D
:1033400005000CEB4200837027B936F83100401EAF
:1033500026F83100521C2A70E2E71821FDF754F8D4
:10336000DEE70E486946083000F090F90020CDF8FD
:103370000500CDF80900ADF802002870641C082C87
:10338000C3DB2878002804D004486946083000F0E0
:103390007DF904B0BDE8F08164050020380000200C
:1033A00010B5002202EB420300EBC3031B7C8B42EF
:1033B00008D102EB420100EBC1001821FDF724F80F
:1033C000002010BD521C082AECDB052010BD0FB4F4
:1033D000F0B505462846FFF770FF0446082C28D0B4
:1033E0009DF820102846FFF776FFBDF82210012334
:1033F0000A4608280FD000EB400005EBC00006ACE1
:103400000830F0CCF0C01838418002B903710420B4
:10341000F0BC5DF814FB04EB440005EBC00006AC07
:103420000830F0CCF0C01838418002B90371002098
:10343000EEE70320ECE7012907D0022908D0032991
:1034400008D0042909D00020704700F5B3707047F8
:103450001030704700F50B707047D830704700008F
:103460000948084901600949416009480021016093
:1034700041600822026104228260C1600175FFF789
:1034800061B800007D2E0008400000207000002080
:103490004C0500201FB51368CDF805305268CDF8F3
:1034A0000920CDF801100E226946FCF736FF1FBD3A
:1034B00000B58BB00A46014603A8FFF7EBFF03A84F
:1034C0000FC8CDE90923CDE907019DF81D00FFF7DD
:1034D00043F868B19DF820000B2859D00BDC002878
:1034E0007ED001287DD0032869D00A2809D138E090
:1034F00002200BB000BD0C2874D0112803D0122874
:1035000018D00220F5E79DF81D00FFF725F80146C9
:1035100009980090BDF82800ADF80400DDE9072304
:1035200003A8FFF76FFD03A80FC8CDE90923CDE974
:103530000701A3E09DF81D00FFF70EF8014609986A
:103540000090BDF82800ADF80400DDE9072303A8CA
:10355000FFF736FE03A80FC8CDE90923CDE907011F
:103560008CE09DF81D00FEF7F7FF014609980090DA
:10357000BDF82800ADF80400DDE9072303A8FFF734
:1035800093FC03A80FC8CDE90923CDE9070175E035
:103590009DF81D00FEF7E0FF014609980090BDF878
:1035A0002800ADF80400DDE9072303A8FFF7EEFCCF
:1035B00003A80FC8CDE90923CDE907015EE09DF816
:1035C0001D00FEF7C9FF014609980090BDF82800CC
:1035D000ADF80400DDE9072303A8FFF752FE02E07F
:1035E00008E01EE034E003A80FC8CDE90923CDE9C7
:1035F000070143E09DF81D00FEF7AEFF0146099864
:103600000090BDF82800ADF80400DDE9072303A809
:10361000FFF79EFD03A80FC8CDE90923CDE90701F7
:103620002CE09DF81D00FEF797FF014609980090D9
:10363000BDF82800ADF80400DDE9072303A8FFF773
:10364000A3FD03A80FC8CDE90923CDE9070115E0C3
:103650009DF81D00FEF780FF014609980090BDF817
:103660002800ADF80400DDE9072303A8FFF772FC8A
:1036700003A80FC8CDE90923CDE9070107A902482E
:1036800000F004F8002034E74000002038B50C4674
:1036900061788DF80010D0E90053621D184600993A
:1036A000A847207038BD000021F00042A2F160520E
:1036B000B2F5801F01F0004328BFD2F17F6C0BD917
:1036C0005FEA001C43EAC20242EB507018BF704729
:1036D00028BF20F001007047B2F5801FBCBF18461C
:1036E00070474FEA410C1CF5001F02D2084600F05B
:1036F000BEBB70B500F002F900000089FFF7F6BF0D
:103700004FF00040A0F580007047000002494FF0E4
:10371000000000F026BC00BF0000F87F4FEA410324
:103720004FEA5353A3F58063D3F11E03C8BFD3F10F
:10373000210C0CDD4FF0004242EAC12242EA505215
:1037400032FA03FC8CEAE17CACEBE1707047102BA1
:10375000C4BF0020704703F5787CBCF1FF3F04D064
:103760006FF0004282EA2100704770B500F0C6F8A1
:103770004992248000207047F2E710F0004248BFD1
:103780004042B0FA80F310FA03F10AD0C3F11D03EE
:1037900003F580634FEA415002EB035202EBD12163
:1037A00070474FF000007047DFF848C170B51CEA61
:1037B000111E1EBF1CEA13159EEA0C0F95EA0C0F92
:1037C00000F06F8081EA030423EA4C134EEAD47EB2
:1037D00021EA4C1141F4801143F48013AE44A1FB63
:1037E000024CA0FB0365AEF17F7E361955EB0C054C
:1037F000A1FB034C4CF10003A0FB021C16EB0C06D2
:10380000654153F10003094218BF46F0010613F465
:10381000007F0BD14FEA03314FEA0530340341EA10
:10382000155140EA16506FF003020AE04FEAC32137
:103830004FEAC520F40241EA555140EA56506FF074
:10384000020202EB2E4201EB025585EACE710AD04C
:103850005FEA440C18BF24F0004450F1000041F12D
:10386000000120EAD47040F2FE7C624500D270BDB7
:10387000A84214BF4FF080444FF04044002E08BFD0
:103880000024BEF1806FA8BFA1F1C041BDE8704027
:1038900080F282804FF0000001F1C04101F0004150
:1038A00070479EEA0C0F0CEA131518BF95EA0C0F2F
:1038B00006D04FF0000081EA030E0EF0004170BD0B
:1038C00000F01CF88900013E00F007B800F009B8CC
:1038D0004FEA430C5FEA5C5C08D081EA030100F028
:1038E0005BB84FEA410C5FEA5C5CF6D14FF0000038
:1038F000014970470000FF070000F87F0EF1020E3B
:103900002EF0030E5EF8046B364205D4012A43EB19
:10391000030515F5001F12D8012841EB010C1CF519
:10392000001F0CD80ED14FEAD17C15F5001F0CEB0F
:103930004C0C0CF1020C08BF4CEBD37C04E04FF0B4
:10394000080C01E04FEAD37C0CEB4C0526FA05F697
:1039500006F00706B6F1040C06D20EEB860CBDE8A5
:1039600070404CF0010C6047DFE80CF0090B0202DC
:103970004FF000414FF00000A1F5002170BD194645
:103980001046012851EB010418BFD4F5001484BF80
:10399000002001F0004170BD0808A0F500114FEAB9
:1039A0003101704743004FEAD30C4FEA3C0C4340CF
:1039B0001FBF40070CF1605113F0FE4F70471CF021
:1039C000006F03D100200CF0004170470CF0004361
:1039D00043EA507010B540EACC0000F002FA00BF94
:1039E000000000924FEA0001FFF7D6BF4FF0004100
:1039F0004FF00000A1F500217047000090EA010F90
:103A000048BF81F0004100F13E82421A3CBF801A5B
:103A100089184FEAD0524FF07F4C1CEA410FA2EBBD
:103A2000D15318BF9CEA026F00F03B804FF0004C6E
:103A30004CEA00204CEA012121FA03FC10EB0C0CAB
:103A40001ED202F1FF325FEA1C2040EBC25038BFA9
:103A500070471CF07F0F4FEA400C18BFBCF17F4F3E
:103A600038BF7047C3F12003994008BF20F0010020
:103A7000BCF17F4F38BF7047A0F1C04000F0F7B9EC
:103A80004FEA3C00000A40EBC25028BF1CF0FF0F79
:103A90004FEA400CE6D018BFBCF17F4F38BF7047EB
:103AA000EAE79CEA026F05D010EA5C0F08BF00F05D
:103AB0000040704710B500F094F900BF64FBBE3EB3
:103AC000014800F04EBA00BF0000C07F4FF47F0CE9
:103AD0001CEAD0121EBF1CEAD11392EA0C0F93EA23
:103AE0000C0F00F0858090EA010F48BF42F480720D
:103AF00040F4000C41F400002CF07F4120F07F40A6
:103B000000B58142A2EB03020FF2081CACEB504E51
:103B1000C0F100009EF800E04FEA4E0E00FB0EFCE4
:103B200038BF49004FEA2C1C02F5FA020CFB0EF3D9
:103B30004FEACE1E4FEA112C4FEAC1210EEB635E15
:103B400042EB22420EFB0CFC4FEA1C5300FB03111C
:103B50004FEA112C4FEA01310EFB0CFC4FEADC4C12
:103B600000FB0C11C14228BF09184CEB03335DF870
:103B700004EB10EB410143EBC250B2F57C0F38BFB0
:103B8000704729D512F0F00F1CBF00F1C04000F0C3
:103B900000407047008182838485868788898B8C6A
:103BA0008D8E8F919293959697999A9C9D9FA0A2A6
:103BB000A3A5A7A8AAACAEB0B2B3B5B7B9BCBEC0F6
:103BC000C2C5C7C9CCCED1D4D7D9DCDFE2E6E9EC97
:103BD000F0F3F7FAFE0000004FEA400C0CF1807C95
:103BE000BCF17E4F28BF7047B0F1C04000F03FB934
:103BF00090EA010F0CEAD11348BF42F4807262458B
:103C000038BF634507D213F47F0F16D080EA010056
:103C100000F00040704710B500F0E3F8097EFC3E6C
:103C200000F005B880EA010000F00040704780EA2B
:103C3000010000F0004000F01AB912F47F0F04BF39
:103C40000248704780EA010000F011B90000C07F0F
:103C500041000B0ED3F19E0208D950F400034FEA45
:103C6000032323FA02F048BF4042704710B500F02A
:103C7000B8F800BF49922480002070476FF00042DE
:103C800082EA20007047000010F0004148BF404227
:103C9000B0FA80F310FA03F2C3F19D030BD051EA9E
:103CA000C35101EB1220530638BF704700F10100E9
:103CB00008BF20F001007047B0FA80F310FA03F259
:103CC000C3F19D030AD0D90501EB1220530638BF7A
:103CD000704700F1010008BF20F0010070470000AC
:103CE0004FF47F0C1CEAD0121EBF1CEAD11392EADB
:103CF0000C0F93EA0C0F00F0478090EA010F48BFC9
:103D000042F480724FF0004C4CEA00204CEA012152
:103D100002EB0302A0FB0113A2F50002002918BF69
:103D200043F001035B0028BF4FEA330342EB22421A
:103D30005FEA132C4CEBC2502EBFBCEB436FB2F5C5
:103D40007C0F70474FEA036CBCF1004F08BF20F0B6
:103D50000100B2F57C0F38BF70470BD582F0FF022F
:103D600012F5803FC8BF704700F1C040D8BF00F0D7
:103D70000040704700F5000C5FEA4C0C48BF7047EC
:103D8000B0F1C04000F073B890EA010F0CEAD11313
:103D900048BF42F48072624538BF634504D280EA6E
:103DA000010000F00040704710B500F01AF800BFA5
:103DB0008900013E00F007B800F009B85FEA410C45
:103DC0005FEA1C6C08D080EA010000F050B85FEA9E
:103DD000400C5FEA1C6CF6D14FF00040A0F580006B
:103DE00070470EF1020E2EF0030E5EF8044B2442D3
:103DF00004D44FEA4102B2F17F4F11D84FEA400399
:103E0000B3F17F4F0CD80ED14FEAD07CB2F17F4F87
:103E10000CEB4C0C0CF1020C08BF4CEBD17C04E019
:103E20004FF0080C01E04FEAD17C0CEB4C0324FA74
:103E300003F404F00704B4F1040C06D20EEB840C76
:103E4000BDE810404CF0010C6047DFE80CF00708BB
:103E500002024FF00040A0F5800010BD084642006D
:103E600018BFD2F1807288BF00F0004010BDFF2162
:103E700041EAD050C005704790EA010F48BF81F079
:103E800000413FF5C2AD421A04D882F00042A0EBD7
:103E9000020011444FEAD0524FF07F4C1CEA410F10
:103EA000A2EBD15318BF9CEA026F4AD04FF0004CEE
:103EB0004CEA00204CEA012121FA03FCB0EB0C0C87
:103EC0000FD412F0FE0F36D05FEA4C001DD5001261
:103ED00040EBC25038BF70471CF03F0F18BF70470F
:103EE0000BE0A2F101025FEA1C2040EBC25038BF98
:103EF00070471CF07F0F18BF7047C3F12003994033
:103F000014BF401E20F00100704780084FEA1223C2
:103F100008BF7047B0FA80FCA2EB0C02CCF1280C71
:103F200060FA0CF093EA122F04BF00EBC250704706
:103F30004FEAC3707047130A5FEADC1008BF70478E
:103F4000F6E79CEA026F04D010EA5C0F08BF00207D
:103F5000704710B5FFF745FF40DFF63E81F00040A7
:103F600070470CF00F03092B08BF082000F07F807A
:103F70000A2B0BD0082B18BF704708BF1CF0400F4E
:103F80000AD04FF000004FF0000170471CF0400FC6
:103F900018BF4FF0004070471CF0100F08D020F001
:103FA000704300F07F4242EAD3014FEA437070470A
:103FB00000F0604021F07F4242EA000201F07F40C1
:103FC00040EA727070474FF0FF0C4CF4E06C1CEA52
:103FD00011531CBF9CEA030C9445C2BFDA4201EBAB
:103FE00002517047002B0DD0BCF1000F0FD0002AFA
:103FF00001F00041A4BF41F0E04141F07F614FF08A
:104000000000704701F000414FF00000704750EA97
:1040100001334FF09B0C18BF4CF0806C7FF476ABF3
:1040200070474FF0FF0212EAD0521CBF92F0FF031C
:104030008B42C2BFD14200EBC1507047002A0AD068
:10404000002B0BD0002900F00040A4BF40F0FE4040
:1040500040F40000704700F00040704743024FF00A
:104060000B0C18BF4CF0806C7FF42AAD70471CF429
:10407000801F11D01CF4E02F03D06FEACC3149002F
:1040800070474FF04050EFF3008222F0704242EA56
:10409000000282F3008870474FF000007047000074
:1040A00004050607080900000000000D01020304D2
:1040B00005060708090A0B0C0D0E0F100000000082
:1040C000000000000102030406070809EC40000894
:1040D00000000020480000008C0100083441000866
:1040E00048000020400C0000A8010008000000006B
:1040F0000100000010000000000000000024F40097
:1041000000000000000000000000000000000000AF
:10411000000000000000000000000000000000009F
:10412000000000000000000000000000000000008F
:04413000000000008B
:04000005080001519D
:00000001FF
